:100000000C9434000C943E000C943E000C943E0082
:100010000C943E000C943E000C943E000C943E0068
:100020000C943E000C943E000C943E000C943E0058
:100030000C943E000C943E000C943E000C943E0048
:100040000C943E000C943E000C943E000C943E0038
:100050000C943E000C943E000C943E000C943E0028
:100060000C943E000C943E0011241FBECFEFD4E050
:10007000DEBFCDBF0E9475000C9498000C94000068
:1000800087B18F6087B940984198429843985098BB
:10009000589A5198599A52985A9A53985B9A089537
:1000A000662369F048B121E030E0B90102C0660F73
:1000B000771F8A95E2F7CB01842B88B9089548B160
:1000C00021E030E0B90102C0660F771F8A95E2F7A0
:1000D000CB018095842388B9089598B1907F98B911
:1000E00098B18F70982B98B908950E944000C0E095
:1000F000D0E08C2F0E946D00CE0101968770907821
:10010000992324F40197886F9F6F0196EC01489B17
:10011000FECF8FE19EE40197F1F700C000004899FF
:10012000FECF8FE19EE40197F1F700C00000E1CF20
:04013000F894FFCF71
:00000001FF
