:100000000C9434000C943E000C943E000C943E0082
:100010000C943E000C943E000C943E000C943E0068
:100020000C943E000C943E000C943E000C943E0058
:100030000C943E000C943E000C943E000C943E0048
:100040000C943E000C943E000C943E000C943E0038
:100050000C943E000C943E000C943E000C943E0028
:100060000C943E000C943E0011241FBECFEFD4E050
:10007000DEBFCDBF0E946D000C94A0000C94000068
:1000800087B18F6087B94098419842984398089506
:10009000662369F048B121E030E0B90102C0660F83
:1000A000771F8A95E2F7CB01842B88B9089548B170
:1000B00021E030E0B90102C0660F771F8A95E2F7B0
:1000C000CB018095842388B9089598B1907F98B921
:1000D00098B18F70982B98B908950E94400081E0E4
:1000E0000E9465002FEF81EE94E021508040904007
:1000F000E1F700C0000082E00E9465002FEF81EE72
:1001000094E0215080409040E1F700C0000084E07E
:100110000E9465002FEF81EE94E0215080409040D6
:10012000E1F700C0000088E00E9465002FEF81EE3B
:1001300094E0215080409040E1F700C00000CFCF14
:04014000F894FFCF61
:00000001FF
